S01700004763634170706C69636174696F6E312E737265635B
S113000071C000008EC000008CC000008AC00000D7
S113001088C0000086C0000084C0000082C00000C8
S113002080C000007EC000007CC000007AC00000D8
S113003078C0000076C0000074C0000072C00000E8
S113004070C000006EC000006CC000006AC00000F8
S113005068C0000066C0000064C0000062C0000008
S113006060C000005EC000005CC000005AC0000018
S113007058C0000056C0000054C0000052C0000028
S113008050C000004EC000004CC000004AC0000038
S113009048C0000046C0000044C0000042C0000048
S11300A040C000003EC000003CC000003AC0000058
S11300B038C0000036C0000034C0000032C0000068
S11300C030C000002EC000002CC000002AC0000078
S11300D028C0000026C0000024C0000022C0000088
S11300E020C0000011241FBECFEFD1E2DEBFCDBF80
S11300F000E00CBF12E0A0E0B2E0E2E0F9E000E0D2
S11301000BBF02C007900D92A031B107D9F722E0CE
S1130110A0E1B2E001C01D92A132B207E1F753D2CF
S1130120EEC36ECF87B1876F87B988B1887088B9FD
S1130130089586E69EE00197F1F700004098419803
S113014080E388B9429A8FEF97E40197F1F700C0F2
S11301500000429886E69EE00197F1F7000040987F
S1130160419880E388B9429A8FEF97E40197F1F7B9
S113017000C00000429886E69EE00197F1F7000077
S11301804098419880E388B9429A8FEF97E40197A9
S1130190F1F700C00000429886E69EE00197F1F76F
S11301A000004098419880E288B9429A8FEF97E422
S11301B00197F1F700C000004298089598B19F702C
S11301C098B998B1282F207F922B98B940984198DC
S11301D0429AEFEFF7E43197F1F700C0000042983C
S11301E098B19F7098B998B18295807F892B88B90E
S11301F040984198429A8FEF97E40197F1F700C035
S113020000004298089595DF86E69EE00197F1F795
S1130210000088E2D3DF81E0D1DF86E0CFDF8EE02B
S1130220CDDF80E8CBCF089598B19F7098B998B18D
S1130230282F207F922B98B9409A4198429AEFEF49
S1130240F7E43197F1F700C00000429898B19F702D
S113025098B998B18295807F892B88B9409A419842
S1130260429A8FEF97E40197F1F700C0000042989B
S1130270089580E8A3CF0895CF93DF93EC0188819C
S1130280882329F02196D0DF89918111FCCFDF9159
S1130290CF910895823069F018F4813031F00895D7
S11302A0833059F0843069F008958FE7860F86CF44
S11302B008958FEB860F82CF089583E9860F7ECF52
S11302C0089583ED860F7ACF08950F931F93CF93EC
S11302D0DF938A01E901882311F0611102C0C9DFAB
S11302E001C0D8DFC530D10509F0CDC098013295E1
S11302F022952F7023273F702327A7E4B3E0F0D281
S1130300969587959695879596958795C09690939B
S113031015028093140288DF980136952795369547
S1130320279536952795A5ECB0E2DAD2AC01529523
S113033042954F7045275F704527509317024093AD
S113034016029A01ADECBCECCBD2969587959695A6
S11303508795969587959C01220F331F880F991FC7
S1130360880F991F880F991F820F931F481B590BE1
S1130370CA01C0969093200280931F0255DF04C0E7
S1130380C330D10509F084C0980136952795369578
S11303902795ABE7B4E1A4D2AC01569547955093A9
S11303A01702409316029A01ADECBCEC99D29695D3
S11303B0879596958795969587959C01220F331F6F
S11303C0880F991F880F991F880F991F820F931FF9
S11303D0481B590BCA01C09690931C0280931B02C0
S11303E023DF9801ADECBCEC7BD2AC01569547956C
S11303F05695479556954795509317024093160284
S11304009A016ED296958795969587959695879538
S11304109C01220F331F880F991F880F991F880F83
S1130420991F820F931F481B590BCA01C0969093C2
S11304301A0280931902F8DE03C0C130D105F1F429
S11304409801ADECBCEC4CD2969587959695879522
S1130450969587959C01220F331F880F991F880F4B
S1130460991F880F991F820F931F081B190BC8012E
S1130470C09690931E0280931D02D6DE269764F0E8
S113048085E4D2DE09C0C430D10509F079CF44CF68
S1130490C230D10591F6A5CFDF91CF911F910F9175
S11304A0089510BA11BA1092070110920801089524
S11304B081B18F6081B982B1807F82B9EAE0F1E0D5
S11304C0808188618083EBE0F1E0808188618083B2
S11304D0089528DEE6DFECCF0895E1E2F1E0108232
S11304E08FEF8093250191E09093240110922901CC
S11304F08093280110922B0180932A0110922D01E0
S113050080932C0189EA809320018BE080830895F5
S1130510EAE7F0E0108210927B0080E280937C0096
S113052080E880BF86E880830895883018F098E0DA
S113053090937B008770806280937C00EAE7F0E010
S1130540808180648083808184FFFDCF80917900E5
S1130550EAE7F0E090819061908310927B00089527
S1130560CF93DF93C82FD62F842FDFDF8093180219
S1130570482F50E023E030E06D2F8C2FA6DEDF9172
S1130580CF91089592B1907F8F70982B92B908956E
S113059080E0F8CF089586E0F5CF089585E0F2CFA6
S11305A008958AE0EFCF089582E0ECCF089584E0C7
S11305B0E9CF089589E0E6CF0895F8948ADFA8DFAB
S11305C08CDF78940895F9DFB4DD1DDE08E211E0D4
S11305D00F2EF2E3DF2EF02DCAE2D1E00F2EF2E867
S11305E0EF2EF02D0F2EF6E9CF2EF02D0F2EF4E680
S11305F0FF2EF02D83E099DF8093120282E095DFD5
S11306008093110281E091DF809310021092130213
S113061043E061E081E0A4DF42E065E081E0A0DF47
S113062041E069E081E09CDF61E082E033DE82E06A
S113063092E022DE80910002909101022091110249
S113064030E08217930708F42DC12091120230E0A4
S11306508217930708F42BC12091100230E082170F
S1130660930708F424C180911302811120C181E011
S113067080931302F801F082F8829CDFFFEF2FEBE6
S11306808FE0F15020408040E1F700C000008091ED
S11306900002909101022091110230E08217930729
S11306A008F400C12091120230E08217930708F485
S11306B0FEC02091100230E08217930708F4F7C0BF
S11306C080911302813009F0F2C062DF9FEFEFE7FF
S11306D0F6E19150E040F040E1F700C00000809165
S11306E00002909101022091110230E082179307D9
S11306F008F0DDC02091120230E08217930708F061
S113070086C02091100230E08217930708F07FC062
S11307108091130281117BC081E08093130238DF42
S11307202FEF8FE39BE0215080409040E1F700C021
S1130730000031DF809100029091010220911102AA
S113074030E08217930708F462C02091120230E06F
S11307508217930708F0B0C02091100230E082178E
S1130760930708F0A9C0809113028111A5C081E00C
S113077080931302F801F082F8820DDF8091000269
S1130780909101022091110230E08217930708F43E
S11307903EC02091120230E08217930708F491C002
S11307A02091100230E08217930708F08AC08091EC
S11307B01302811186C081E080931302F8DEEBDE20
S11307C0F8011082C8828091000290910102209168
S11307D0110230E082179307D0F02091100230E02C
S11307E08217930708F477C02091120230E0821731
S11307F0930708F06BC080911302811167C081E0F8
S113080080931302D1DEC7DEF801C0821882809182
S11308100002909101022091100230E082179307A8
S113082008F459C02091110230E08217930708F0B0
S1130830E1CE2091120230E08217930708F0DACE5D
S1130840809113028111D6CE81E080931302A9DE38
S1130850A2DEF801E082D882809100029091010228
S11308602091100230E08217930708F0C3CE209144
S1130870110230E08217930708F0BCCE20911202D7
S113088030E08217930708F4B5CE809113028111EA
S1130890B1CE81E08093130281DE7DDEF801D08247
S11308A0E882A8CE809100029091010223CF80912A
S11308B000029091010249CF8091000290910102BF
S11308C068CF809100029091010287CF809100024D
S11308D090910102A7CF8091000290910102C7CFAD
S11308E0A29FB001B39FC001A39F700D811D11246D
S11308F0911DB29F700D811D1124911D0895F894CE
S1050900FFCF23
S113090210004A414920534852492052414D0000A7
S9030000FC
